{
  "contractName": "ToDo",
  "abi": [
    {
      "inputs": [],
      "payable": false,
      "stateMutability": "nonpayable",
      "type": "constructor"
    },
    {
      "constant": false,
      "inputs": [
        {
          "name": "_content",
          "type": "string"
        },
        {
          "name": "_author",
          "type": "string"
        }
      ],
      "name": "createTask",
      "outputs": [],
      "payable": false,
      "stateMutability": "nonpayable",
      "type": "function"
    },
    {
      "constant": true,
      "inputs": [
        {
          "name": "id",
          "type": "uint256"
        }
      ],
      "name": "getTask",
      "outputs": [
        {
          "name": "",
          "type": "uint256"
        },
        {
          "name": "",
          "type": "uint256"
        },
        {
          "name": "",
          "type": "string"
        },
        {
          "name": "",
          "type": "string"
        },
        {
          "name": "",
          "type": "bool"
        }
      ],
      "payable": false,
      "stateMutability": "view",
      "type": "function"
    },
    {
      "constant": true,
      "inputs": [],
      "name": "getTasks",
      "outputs": [
        {
          "components": [
            {
              "name": "id",
              "type": "uint256"
            },
            {
              "name": "date",
              "type": "uint256"
            },
            {
              "name": "content",
              "type": "string"
            },
            {
              "name": "author",
              "type": "string"
            },
            {
              "name": "done",
              "type": "bool"
            }
          ],
          "name": "",
          "type": "tuple[]"
        }
      ],
      "payable": false,
      "stateMutability": "view",
      "type": "function"
    }
  ],
  "bytecode": "0x608060405234801561001057600080fd5b50610a8d806100206000396000f3fe608060405234801561001057600080fd5b50600436106100415760003560e01c806304a87e38146100465780631d65e77e14610064578063292a458514610098575b600080fd5b61004e6100b4565b60405161005b9190610889565b60405180910390f35b61007e600480360361007991908101906106ac565b610286565b60405161008f9594939291906108ab565b60405180910390f35b6100b260048036036100ad9190810190610640565b610461565b005b60606000805480602002602001604051908101604052809291908181526020016000905b8282101561027d57838290600052602060002090600502016040518060a00160405290816000820154815260200160018201548152602001600282018054600181600116156101000203166002900480601f0160208091040260200160405190810160405280929190818152602001828054600181600116156101000203166002900480156101a85780601f1061017d576101008083540402835291602001916101a8565b820191906000526020600020905b81548152906001019060200180831161018b57829003601f168201915b50505050508152602001600382018054600181600116156101000203166002900480601f01602080910402602001604051908101604052809291908181526020018280546001816001161561010002031660029004801561024a5780601f1061021f5761010080835404028352916020019161024a565b820191906000526020600020905b81548152906001019060200180831161022d57829003601f168201915b505050505081526020016004820160009054906101000a900460ff161515151581525050815260200190600101906100d8565b50505050905090565b6000806060806000856000878154811061029c57fe5b906000526020600020906005020160010154600088815481106102bb57fe5b9060005260206000209060050201600201600089815481106102d957fe5b906000526020600020906005020160030160008a815481106102f757fe5b906000526020600020906005020160040160009054906101000a900460ff16828054600181600116156101000203166002900480601f0160208091040260200160405190810160405280929190818152602001828054600181600116156101000203166002900480156103ab5780601f10610380576101008083540402835291602001916103ab565b820191906000526020600020905b81548152906001019060200180831161038e57829003601f168201915b50505050509250818054600181600116156101000203166002900480601f0160208091040260200160405190810160405280929190818152602001828054600181600116156101000203166002900480156104475780601f1061041c57610100808354040283529160200191610447565b820191906000526020600020905b81548152906001019060200180831161042a57829003601f168201915b505050505091509450945094509450945091939590929450565b60006040518060a0016040528060008054905081526020014281526020018481526020018381526020016000151581525090806001815401808255809150509060018203906000526020600020906005020160009091929091909150600082015181600001556020820151816001015560408201518160020190805190602001906104ed929190610532565b50606082015181600301908051906020019061050a929190610532565b5060808201518160040160006101000a81548160ff0219169083151502179055505050505050565b828054600181600116156101000203166002900490600052602060002090601f016020900481019282601f1061057357805160ff19168380011785556105a1565b828001600101855582156105a1579182015b828111156105a0578251825591602001919060010190610585565b5b5090506105ae91906105b2565b5090565b6105d491905b808211156105d05760008160009055506001016105b8565b5090565b90565b600082601f8301126105e857600080fd5b81356105fb6105f682610939565b61090c565b9150808252602083016020830185838301111561061757600080fd5b6106228382846109e9565b50505092915050565b60008135905061063a81610a3c565b92915050565b6000806040838503121561065357600080fd5b600083013567ffffffffffffffff81111561066d57600080fd5b610679858286016105d7565b925050602083013567ffffffffffffffff81111561069657600080fd5b6106a2858286016105d7565b9150509250929050565b6000602082840312156106be57600080fd5b60006106cc8482850161062b565b91505092915050565b60006106e183836107ee565b905092915050565b60006106f482610972565b6106fe81856109a0565b93508360208202850161071085610965565b8060005b8581101561074c578484038952815161072d85826106d5565b945061073883610993565b925060208a01995050600181019050610714565b50829750879550505050505092915050565b610767816109d3565b82525050565b610776816109d3565b82525050565b600061078782610988565b61079181856109c2565b93506107a18185602086016109f8565b6107aa81610a2b565b840191505092915050565b60006107c08261097d565b6107ca81856109b1565b93506107da8185602086016109f8565b6107e381610a2b565b840191505092915050565b600060a083016000830151610806600086018261086b565b506020830151610819602086018261086b565b506040830151848203604086015261083182826107b5565b9150506060830151848203606086015261084b82826107b5565b9150506080830151610860608086018261075e565b508091505092915050565b610874816109df565b82525050565b610883816109df565b82525050565b600060208201905081810360008301526108a381846106e9565b905092915050565b600060a0820190506108c0600083018861087a565b6108cd602083018761087a565b81810360408301526108df818661077c565b905081810360608301526108f3818561077c565b9050610902608083018461076d565b9695505050505050565b6000604051905081810181811067ffffffffffffffff8211171561092f57600080fd5b8060405250919050565b600067ffffffffffffffff82111561095057600080fd5b601f19601f8301169050602081019050919050565b6000602082019050919050565b600081519050919050565b600081519050919050565b600081519050919050565b6000602082019050919050565b600082825260208201905092915050565b600082825260208201905092915050565b600082825260208201905092915050565b60008115159050919050565b6000819050919050565b82818337600083830152505050565b60005b83811015610a165780820151818401526020810190506109fb565b83811115610a25576000848401525b50505050565b6000601f19601f8301169050919050565b610a45816109df565b8114610a5057600080fd5b5056fea265627a7a72305820e5ab08a0f8131035b5a96dd06da543e80ad800f2f65e8963357d0fa79ecd52736c6578706572696d656e74616cf50037",
  "source": "pragma solidity ^0.5.0;\npragma experimental ABIEncoderV2;\n\n\ncontract ToDo {\n\n  constructor() public {\n\n  }\n\n  struct Task {\n    uint id;\n    uint date;\n    string content;\n    string author;\n    bool done;\n  }\n\n\n  Task[] tasks;\n\n  function createTask(string memory _content, string memory _author) public {\n    \n     tasks.push(Task(tasks.length, now, _content, _author,false));\n  }\n\n  function getTask(uint id) public view returns(uint,uint,string memory,string memory,bool){\n       return (\n         id, \n         tasks[id].date,\n         tasks[id].content,\n         tasks[id].author,\n         tasks[id].done\n       );\n  }\n\n  function getTasks() public view returns(Task[] memory) {\n      return tasks;\n  }\n\n}\n",
  "sourcePath": "/home/chriszer/Desktop/Ethereum/TodoList/contracts/ToDo.sol",
  "compiler": {
    "name": "solc",
    "version": "0.5.8+commit.23d335f2.Emscripten.clang"
  },
  "schemaVersion": "3.0.16",
  "updatedAt": "2019-10-20T09:48:12.625Z",
  "devdoc": {
    "methods": {}
  },
  "userdoc": {
    "methods": {}
  }
}